CUST000001Anna Jensen                             Anna                Jensen              DK123456789012345678000125075DKKEnghavevej                    12B       1674      Kobenhavn V         4511122233     anna.jensen@example.dk        
CUST000002Mads Hansen                             Mads                Hansen              DK987654321098765432005023490DKKAarhusvej                     8         8000      Aarhus C            4522334455     mads.hansen@example.dk        
CUST000003Sara Larsen                             Sara                Larsen              DK112233445566778899000000000DKKOdensegade                    5         5000      Odense C            4533445566     sara.larsen@example.dk        
CUST000004Jonas Nielsen                           Jonas               Nielsen             DK001122334455667788999999999EURViborgvej                     101       8800      Viborg              4544556677     jonas.nielsen@example.com     
CUST000005Line Christensen                        Line                Christensen         DK556677889900112233000001230USDRoskildevej                   44        4000      Roskilde            4555667788     line.c@example.com            
